{
  "contractName": "KYCContract",
  "abi": [
    {
      "inputs": [],
      "stateMutability": "nonpayable",
      "type": "constructor"
    },
    {
      "inputs": [
        {
          "internalType": "string",
          "name": "_userName",
          "type": "string"
        },
        {
          "internalType": "string",
          "name": "_customerData",
          "type": "string"
        }
      ],
      "name": "addKycRequest",
      "outputs": [
        {
          "internalType": "uint8",
          "name": "",
          "type": "uint8"
        }
      ],
      "stateMutability": "nonpayable",
      "type": "function"
    },
    {
      "inputs": [
        {
          "internalType": "string",
          "name": "_userName",
          "type": "string"
        },
        {
          "internalType": "string",
          "name": "_customerData",
          "type": "string"
        }
      ],
      "name": "removeKYCRequest",
      "outputs": [
        {
          "internalType": "uint8",
          "name": "",
          "type": "uint8"
        }
      ],
      "stateMutability": "nonpayable",
      "type": "function"
    },
    {
      "inputs": [
        {
          "internalType": "string",
          "name": "_userName",
          "type": "string"
        },
        {
          "internalType": "string",
          "name": "_customerData",
          "type": "string"
        }
      ],
      "name": "addCustomer",
      "outputs": [
        {
          "internalType": "uint8",
          "name": "",
          "type": "uint8"
        }
      ],
      "stateMutability": "nonpayable",
      "type": "function"
    },
    {
      "inputs": [
        {
          "internalType": "string",
          "name": "_userName",
          "type": "string"
        }
      ],
      "name": "removeCustomer",
      "outputs": [
        {
          "internalType": "uint8",
          "name": "",
          "type": "uint8"
        }
      ],
      "stateMutability": "nonpayable",
      "type": "function"
    },
    {
      "inputs": [
        {
          "internalType": "string",
          "name": "_userName",
          "type": "string"
        },
        {
          "internalType": "string",
          "name": "_password",
          "type": "string"
        },
        {
          "internalType": "string",
          "name": "_newcustomerData",
          "type": "string"
        }
      ],
      "name": "modifyCustomer",
      "outputs": [
        {
          "internalType": "uint8",
          "name": "",
          "type": "uint8"
        }
      ],
      "stateMutability": "nonpayable",
      "type": "function"
    },
    {
      "inputs": [
        {
          "internalType": "string",
          "name": "_userName",
          "type": "string"
        },
        {
          "internalType": "string",
          "name": "_password",
          "type": "string"
        }
      ],
      "name": "viewCustomer",
      "outputs": [
        {
          "internalType": "string",
          "name": "",
          "type": "string"
        }
      ],
      "stateMutability": "view",
      "type": "function",
      "constant": true
    },
    {
      "inputs": [
        {
          "internalType": "address",
          "name": "_ethAddress",
          "type": "address"
        }
      ],
      "name": "getBankRequests",
      "outputs": [
        {
          "internalType": "string[]",
          "name": "",
          "type": "string[]"
        }
      ],
      "stateMutability": "nonpayable",
      "type": "function"
    },
    {
      "inputs": [
        {
          "internalType": "string",
          "name": "_userName",
          "type": "string"
        }
      ],
      "name": "getCustomerRating",
      "outputs": [
        {
          "internalType": "uint8",
          "name": "",
          "type": "uint8"
        }
      ],
      "stateMutability": "nonpayable",
      "type": "function"
    },
    {
      "inputs": [
        {
          "internalType": "address",
          "name": "_ethAddress",
          "type": "address"
        }
      ],
      "name": "getBankRating",
      "outputs": [
        {
          "internalType": "uint8",
          "name": "",
          "type": "uint8"
        }
      ],
      "stateMutability": "nonpayable",
      "type": "function"
    },
    {
      "inputs": [
        {
          "internalType": "address",
          "name": "_ethAddress",
          "type": "address"
        }
      ],
      "name": "getBankDetails",
      "outputs": [
        {
          "internalType": "address",
          "name": "",
          "type": "address"
        },
        {
          "internalType": "string",
          "name": "",
          "type": "string"
        },
        {
          "internalType": "uint8",
          "name": "",
          "type": "uint8"
        },
        {
          "internalType": "uint8",
          "name": "",
          "type": "uint8"
        },
        {
          "internalType": "string",
          "name": "",
          "type": "string"
        },
        {
          "internalType": "address[]",
          "name": "",
          "type": "address[]"
        }
      ],
      "stateMutability": "nonpayable",
      "type": "function"
    },
    {
      "inputs": [
        {
          "internalType": "string",
          "name": "_userName",
          "type": "string"
        }
      ],
      "name": "retrieveHistory",
      "outputs": [
        {
          "internalType": "address",
          "name": "",
          "type": "address"
        }
      ],
      "stateMutability": "nonpayable",
      "type": "function"
    },
    {
      "inputs": [
        {
          "internalType": "string",
          "name": "_userName",
          "type": "string"
        }
      ],
      "name": "customerUpvote",
      "outputs": [
        {
          "internalType": "uint8",
          "name": "",
          "type": "uint8"
        }
      ],
      "stateMutability": "nonpayable",
      "type": "function"
    },
    {
      "inputs": [
        {
          "internalType": "address",
          "name": "_ethAddress",
          "type": "address"
        }
      ],
      "name": "bankUpvote",
      "outputs": [
        {
          "internalType": "uint8",
          "name": "",
          "type": "uint8"
        }
      ],
      "stateMutability": "nonpayable",
      "type": "function"
    },
    {
      "inputs": [
        {
          "internalType": "string",
          "name": "_userName",
          "type": "string"
        },
        {
          "internalType": "string",
          "name": "_password",
          "type": "string"
        }
      ],
      "name": "setPassword",
      "outputs": [
        {
          "internalType": "uint8",
          "name": "",
          "type": "uint8"
        }
      ],
      "stateMutability": "nonpayable",
      "type": "function"
    },
    {
      "inputs": [
        {
          "internalType": "string",
          "name": "_bankName",
          "type": "string"
        },
        {
          "internalType": "address",
          "name": "_ethAddress",
          "type": "address"
        },
        {
          "internalType": "string",
          "name": "_regNumber",
          "type": "string"
        }
      ],
      "name": "addBank",
      "outputs": [
        {
          "internalType": "uint8",
          "name": "",
          "type": "uint8"
        }
      ],
      "stateMutability": "nonpayable",
      "type": "function"
    },
    {
      "inputs": [
        {
          "internalType": "address",
          "name": "_ethAddress",
          "type": "address"
        }
      ],
      "name": "removeBank",
      "outputs": [
        {
          "internalType": "uint8",
          "name": "",
          "type": "uint8"
        }
      ],
      "stateMutability": "nonpayable",
      "type": "function"
    }
  ],
  "bytecode": "0x60806040526706f05b59d3b2000060015534801561001c57600080fd5b50336000806101000a81548173ffffffffffffffffffffffffffffffffffffffff021916908373ffffffffffffffffffffffffffffffffffffffff1602179055506132228061006c6000396000f3fe608060405234801561001057600080fd5b506004361061011d576000357c0100000000000000000000000000000000000000000000000000000000900480639649650c116100b4578063ccfa8e7111610083578063ccfa8e7114610367578063d4a46c5114610397578063dc4009a4146103c7578063fc55ea9d146103f75761011d565b80639649650c146102a7578063a18dce7b146102d7578063b8144a7214610307578063ca386496146103375761011d565b8063628e09ad116100f0578063628e09ad146101e75780636560a262146102175780636fe71b48146102475780638eafe0f0146102775761011d565b806315101e02146101225780631f2c141a146101575780633190abc014610187578063568eb8f4146101b7575b600080fd5b61013c60048036036101379190810190612913565b610427565b60405161014e96959493929190612ecb565b60405180910390f35b610171600480360361016c91908101906129fc565b6107cf565b60405161017e9190612f63565b60405180910390f35b6101a1600480360361019c91908101906129fc565b6108c8565b6040516101ae9190613005565b60405180910390f35b6101d160048036036101cc919081019061293c565b610b3f565b6040516101de9190612eb0565b60405180910390f35b61020160048036036101fc9190810190612913565b610b8a565b60405161020e9190612f41565b60405180910390f35b610231600480360361022c919081019061293c565b610d6d565b60405161023e9190613005565b60405180910390f35b610261600480360361025c9190810190612913565b61116c565b60405161026e9190613005565b60405180910390f35b610291600480360361028c919081019061293c565b61141f565b60405161029e9190613005565b60405180910390f35b6102c160048036036102bc9190810190612913565b611457565b6040516102ce9190613005565b60405180910390f35b6102f160048036036102ec9190810190612a68565b61170d565b6040516102fe9190613005565b60405180910390f35b610321600480360361031c9190810190612913565b611a49565b60405161032e9190613005565b60405180910390f35b610351600480360361034c91908101906129fc565b611aa2565b60405161035e9190613005565b60405180910390f35b610381600480360361037c919081019061297d565b611ae4565b60405161038e9190613005565b60405180910390f35b6103b160048036036103ac91908101906129fc565b611e91565b6040516103be9190613005565b60405180910390f35b6103e160048036036103dc91908101906129fc565b612246565b6040516103ee9190613005565b60405180910390f35b610411600480360361040c919081019061293c565b6123c9565b60405161041e9190613005565b60405180910390f35b60006060600080606080600460008873ffffffffffffffffffffffffffffffffffffffff1673ffffffffffffffffffffffffffffffffffffffff16815260200190815260200160002060000160009054906101000a900473ffffffffffffffffffffffffffffffffffffffff16600460008973ffffffffffffffffffffffffffffffffffffffff1673ffffffffffffffffffffffffffffffffffffffff168152602001908152602001600020600101600460008a73ffffffffffffffffffffffffffffffffffffffff1673ffffffffffffffffffffffffffffffffffffffff16815260200190815260200160002060020160009054906101000a900460ff16600460008b73ffffffffffffffffffffffffffffffffffffffff1673ffffffffffffffffffffffffffffffffffffffff16815260200190815260200160002060020160019054906101000a900460ff16600460008c73ffffffffffffffffffffffffffffffffffffffff1673ffffffffffffffffffffffffffffffffffffffff168152602001908152602001600020600301600460008d73ffffffffffffffffffffffffffffffffffffffff1673ffffffffffffffffffffffffffffffffffffffff168152602001908152602001600020600501848054600181600116156101000203166002900480601f01602080910402602001604051908101604052809291908181526020018280546001816001161561010002031660029004801561068f5780601f106106645761010080835404028352916020019161068f565b820191906000526020600020905b81548152906001019060200180831161067257829003601f168201915b50505050509450818054600181600116156101000203166002900480601f01602080910402602001604051908101604052809291908181526020018280546001816001161561010002031660029004801561072b5780601f106107005761010080835404028352916020019161072b565b820191906000526020600020905b81548152906001019060200180831161070e57829003601f168201915b50505050509150808054806020026020016040519081016040528092919081815260200182805480156107b357602002820191906000526020600020905b8160009054906101000a900473ffffffffffffffffffffffffffffffffffffffff1673ffffffffffffffffffffffffffffffffffffffff1681526020019060010190808311610769575b5050505050905095509550955095509550955091939550919395565b60606107fb6002846040516107e49190612e82565b90815260200160405180910390206001018361254a565b156108c1576002836040516108109190612e82565b90815260200160405180910390206002018054600181600116156101000203166002900480601f0160208091040260200160405190810160405280929190818152602001828054600181600116156101000203166002900480156108b55780601f1061088a576101008083540402835291602001916108b5565b820191906000526020600020905b81548152906001019060200180831161089857829003601f168201915b505050505090506108c2565b5b92915050565b60008073ffffffffffffffffffffffffffffffffffffffff166002846040516108f19190612e82565b908152602001604051809103902060030160029054906101000a900473ffffffffffffffffffffffffffffffffffffffff1673ffffffffffffffffffffffffffffffffffffffff1614610979576040517f08c379a000000000000000000000000000000000000000000000000000000000815260040161097090612fe5565b60405180910390fd5b6006826040516109899190612e82565b908152602001604051809103902060020160149054906101000a900460ff1615610b3457826002846040516109be9190612e82565b908152602001604051809103902060000190805190602001906109e29291906126c8565b50816002846040516109f49190612e82565b90815260200160405180910390206002019080519060200190610a189291906126c8565b5033600284604051610a2a9190612e82565b908152602001604051809103902060030160026101000a81548173ffffffffffffffffffffffffffffffffffffffff021916908373ffffffffffffffffffffffffffffffffffffffff1602179055506000600284604051610a8b9190612e82565b908152602001604051809103902060030160016101000a81548160ff021916908360ff1602179055506000600284604051610ac69190612e82565b908152602001604051809103902060030160006101000a81548160ff021916908360ff160217905550600383908060018154018082558091505060019003906000526020600020016000909190919091509080519060200190610b2a9291906126c8565b5060019050610b39565b600090505b92915050565b6000600282604051610b519190612e82565b908152602001604051809103902060030160029054906101000a900473ffffffffffffffffffffffffffffffffffffffff169050919050565b606060008090505b600460008473ffffffffffffffffffffffffffffffffffffffff1673ffffffffffffffffffffffffffffffffffffffff168152602001908152602001600020600401805490508160ff161015610c8357600460008473ffffffffffffffffffffffffffffffffffffffff1673ffffffffffffffffffffffffffffffffffffffff1681526020019081526020016000206004018160ff1681548110610c3257fe5b9060005260206000200160088260ff1681548110610c4c57fe5b906000526020600020019080546001816001161561010002031660029004610c75929190612748565b508080600101915050610b92565b506008805480602002602001604051908101604052809291908181526020016000905b82821015610d62578382906000526020600020018054600181600116156101000203166002900480601f016020809104026020016040519081016040528092919081815260200182805460018160011615610100020316600290048015610d4e5780601f10610d2357610100808354040283529160200191610d4e565b820191906000526020600020905b815481529060010190602001808311610d3157829003601f168201915b505050505081526020019060010190610ca6565b505050509050919050565b600080600090505b600283604051610d859190612e82565b908152602001604051809103902060040180549050811015610e42573373ffffffffffffffffffffffffffffffffffffffff16600284604051610dc89190612e82565b90815260200160405180910390206004018281548110610de457fe5b9060005260206000200160009054906101000a900473ffffffffffffffffffffffffffffffffffffffff1673ffffffffffffffffffffffffffffffffffffffff161415610e35576000915050611167565b8080600101915050610d75565b50600154600283604051610e569190612e82565b908152602001604051809103902060030160009054906101000a900460ff1660ff161115611026576000809050600460003373ffffffffffffffffffffffffffffffffffffffff1673ffffffffffffffffffffffffffffffffffffffff1681526020019081526020016000206004018181548110610ed057fe5b906000526020600020016000610ee691906127cf565b600080905060006001820160ff1690505b600460003373ffffffffffffffffffffffffffffffffffffffff1673ffffffffffffffffffffffffffffffffffffffff1681526020019081526020016000206004018054905081101561102257600460003373ffffffffffffffffffffffffffffffffffffffff1673ffffffffffffffffffffffffffffffffffffffff1681526020019081526020016000206004018181548110610f9157fe5b90600052602060002001600460003373ffffffffffffffffffffffffffffffffffffffff1673ffffffffffffffffffffffffffffffffffffffff1681526020019081526020016000206004016001830381548110610feb57fe5b906000526020600020019080546001816001161561010002031660029004611014929190612748565b508080600101915050610ef7565b5050505b60008090505b600380549050811015611165576110596003828154811061104957fe5b906000526020600020018461254a565b156111585767016345785d8a00006002846040516110779190612e82565b908152602001604051809103902060030160019054906101000a9050505067016345785d8a00006002846040516110ae9190612e82565b908152602001604051809103902060030160009054906101000a905050506002836040516110dc9190612e82565b9081526020016040518091039020600401339080600181540180825580915050600190039060005260206000200160009091909190916101000a81548173ffffffffffffffffffffffffffffffffffffffff021916908373ffffffffffffffffffffffffffffffffffffffff1602179055506001915050611167565b808060010191505061102c565b505b919050565b600080600090505b600460008473ffffffffffffffffffffffffffffffffffffffff1673ffffffffffffffffffffffffffffffffffffffff16815260200190815260200160002060050180549050811015611283578273ffffffffffffffffffffffffffffffffffffffff16600460008573ffffffffffffffffffffffffffffffffffffffff1673ffffffffffffffffffffffffffffffffffffffff168152602001908152602001600020600501828154811061122557fe5b9060005260206000200160009054906101000a900473ffffffffffffffffffffffffffffffffffffffff1673ffffffffffffffffffffffffffffffffffffffff16141561127657600091505061141a565b8080600101915050611174565b5060008090505b600580549050811015611414578273ffffffffffffffffffffffffffffffffffffffff16600582815481106112bb57fe5b9060005260206000200160009054906101000a900473ffffffffffffffffffffffffffffffffffffffff1673ffffffffffffffffffffffffffffffffffffffff1614156114075767016345785d8a0000600460008573ffffffffffffffffffffffffffffffffffffffff1673ffffffffffffffffffffffffffffffffffffffff16815260200190815260200160002060020160019054906101000a90505050600460008473ffffffffffffffffffffffffffffffffffffffff1673ffffffffffffffffffffffffffffffffffffffff168152602001908152602001600020600501839080600181540180825580915050600190039060005260206000200160009091909190916101000a81548173ffffffffffffffffffffffffffffffffffffffff021916908373ffffffffffffffffffffffffffffffffffffffff160217905550600191505061141a565b808060010191505061128a565b50600090505b919050565b60006002826040516114319190612e82565b908152602001604051809103902060030160009054906101000a900460ff169050919050565b60008060009054906101000a900473ffffffffffffffffffffffffffffffffffffffff1673ffffffffffffffffffffffffffffffffffffffff163373ffffffffffffffffffffffffffffffffffffffff16146114e8576040517f08c379a00000000000000000000000000000000000000000000000000000000081526004016114df90612f85565b60405180910390fd5b60008090505b600580549050811015611702578273ffffffffffffffffffffffffffffffffffffffff166005828154811061151f57fe5b9060005260206000200160009054906101000a900473ffffffffffffffffffffffffffffffffffffffff1673ffffffffffffffffffffffffffffffffffffffff1614156116f557600460008473ffffffffffffffffffffffffffffffffffffffff1673ffffffffffffffffffffffffffffffffffffffff168152602001908152602001600020600080820160006101000a81549073ffffffffffffffffffffffffffffffffffffffff02191690556001820160006115dd91906127cf565b6002820160006101000a81549060ff02191690556002820160016101000a81549060ff021916905560038201600061161591906127cf565b6004820160006116259190612817565b6005820160006116359190612838565b505060006001820190505b6005805490508110156116ea576005818154811061165a57fe5b9060005260206000200160009054906101000a900473ffffffffffffffffffffffffffffffffffffffff166005600183038154811061169557fe5b9060005260206000200160006101000a81548173ffffffffffffffffffffffffffffffffffffffff021916908373ffffffffffffffffffffffffffffffffffffffff1602179055508080600101915050611640565b506001915050611708565b80806001019150506114ee565b50600090505b919050565b60006117396002856040516117229190612e82565b90815260200160405180910390206001018461254a565b15611a385760008090505b600780549050811015611a325761182a6007828154811061176157fe5b9060005260206000200160028760405161177b9190612e82565b90815260200160405180910390206002018054600181600116156101000203166002900480601f0160208091040260200160405190810160405280929190818152602001828054600181600116156101000203166002900480156118205780601f106117f557610100808354040283529160200191611820565b820191906000526020600020905b81548152906001019060200180831161180357829003601f168201915b505050505061254a565b15611a255760008090505b600380549050811015611a23576118626003828154811061185257fe5b906000526020600020018761254a565b15611a1657836002876040516118789190612e82565b9081526020016040518091039020600201908051906020019061189c9291906126c8565b50600782815481106118aa57fe5b9060005260206000200160006118c091906127cf565b60006001820190505b60078054905083101561193457600781815481106118e357fe5b90600052602060002001600760018303815481106118fd57fe5b906000526020600020019080546001816001161561010002031660029004611926929190612748565b5080806001019150506118c9565b5060006002876040516119479190612e82565b908152602001604051809103902060030160016101000a81548160ff021916908360ff16021790555060006002876040516119829190612e82565b908152602001604051809103902060030160006101000a81548160ff021916908360ff160217905550336002876040516119bc9190612e82565b908152602001604051809103902060030160026101000a81548173ffffffffffffffffffffffffffffffffffffffff021916908373ffffffffffffffffffffffffffffffffffffffff160217905550600192505050611a42565b8080600101915050611835565b505b8080600101915050611744565b50611a41565b60009050611a42565b5b9392505050565b6000600460008373ffffffffffffffffffffffffffffffffffffffff1673ffffffffffffffffffffffffffffffffffffffff16815260200190815260200160002060020160019054906101000a900460ff169050919050565b600081600284604051611ab59190612e82565b90815260200160405180910390206001019080519060200190611ad99291906126c8565b506001905092915050565b60008060009054906101000a900473ffffffffffffffffffffffffffffffffffffffff1673ffffffffffffffffffffffffffffffffffffffff163373ffffffffffffffffffffffffffffffffffffffff1614611b75576040517f08c379a0000000000000000000000000000000000000000000000000000000008152600401611b6c90612f85565b60405180910390fd5b60008090505b600580549050811015611c3b578373ffffffffffffffffffffffffffffffffffffffff1660058281548110611bac57fe5b9060005260206000200160009054906101000a900473ffffffffffffffffffffffffffffffffffffffff1673ffffffffffffffffffffffffffffffffffffffff161415611c2e576040517f08c379a0000000000000000000000000000000000000000000000000000000008152600401611c2590612fa5565b60405180910390fd5b8080600101915050611b7b565b5083600460008573ffffffffffffffffffffffffffffffffffffffff1673ffffffffffffffffffffffffffffffffffffffff1681526020019081526020016000206001019080519060200190611c929291906126c8565b5082600460008573ffffffffffffffffffffffffffffffffffffffff1673ffffffffffffffffffffffffffffffffffffffff16815260200190815260200160002060000160006101000a81548173ffffffffffffffffffffffffffffffffffffffff021916908373ffffffffffffffffffffffffffffffffffffffff16021790555081600460008573ffffffffffffffffffffffffffffffffffffffff1673ffffffffffffffffffffffffffffffffffffffff1681526020019081526020016000206003019080519060200190611d6a9291906126c8565b506000600460008573ffffffffffffffffffffffffffffffffffffffff1673ffffffffffffffffffffffffffffffffffffffff16815260200190815260200160002060020160006101000a81548160ff021916908360ff1602179055506000600460008573ffffffffffffffffffffffffffffffffffffffff1673ffffffffffffffffffffffffffffffffffffffff16815260200190815260200160002060020160016101000a81548160ff021916908360ff1602179055506005839080600181540180825580915050600190039060005260206000200160009091909190916101000a81548173ffffffffffffffffffffffffffffffffffffffff021916908373ffffffffffffffffffffffffffffffffffffffff160217905550600190509392505050565b60008073ffffffffffffffffffffffffffffffffffffffff16600683604051611eba9190612e82565b908152602001604051809103902060020160009054906101000a900473ffffffffffffffffffffffffffffffffffffffff1673ffffffffffffffffffffffffffffffffffffffff1614611f42576040517f08c379a0000000000000000000000000000000000000000000000000000000008152600401611f3990612fc5565b60405180910390fd5b6000600460003373ffffffffffffffffffffffffffffffffffffffff1673ffffffffffffffffffffffffffffffffffffffff16815260200190815260200160002060020160019054906101000a900460ff1690506001548160ff161115612234576001600684604051611fb59190612e82565b908152602001604051809103902060020160146101000a81548160ff02191690831515021790555060008090505b60058054905081101561222e573373ffffffffffffffffffffffffffffffffffffffff166005828154811061201457fe5b9060005260206000200160009054906101000a900473ffffffffffffffffffffffffffffffffffffffff1673ffffffffffffffffffffffffffffffffffffffff1614801561208d575060068460405161206d9190612e82565b908152602001604051809103902060020160149054906101000a900460ff165b1561222157836006856040516120a39190612e82565b908152602001604051809103902060010190805190602001906120c79291906126c8565b50846006856040516120d99190612e82565b908152602001604051809103902060000190805190602001906120fd9291906126c8565b503360068560405161210f9190612e82565b908152602001604051809103902060020160006101000a81548173ffffffffffffffffffffffffffffffffffffffff021916908373ffffffffffffffffffffffffffffffffffffffff160217905550600460003373ffffffffffffffffffffffffffffffffffffffff1673ffffffffffffffffffffffffffffffffffffffff168152602001908152602001600020600401849080600181540180825580915050600190039060005260206000200160009091909190915090805190602001906121d99291906126c8565b506007849080600181540180825580915050600190039060005260206000200160009091909190915090805190602001906122159291906126c8565b50600192505050612240565b8080600101915050611fe3565b5061223e565b6000915050612240565b505b92915050565b6000806000905060008090505b6007805490508110156123be576122a060066007838154811061227257fe5b906000526020600020016040516122899190612e99565b90815260200160405180910390206000018661254a565b156123b1576006600782815481106122b457fe5b906000526020600020016040516122cb9190612e99565b9081526020016040518091039020600080820160006122ea91906127cf565b6001820160006122fa91906127cf565b6002820160006101000a81549073ffffffffffffffffffffffffffffffffffffffff02191690556002820160146101000a81549060ff0219169055505060006001820190505b6007805490508110156123ab576007818154811061235a57fe5b906000526020600020016007600183038154811061237457fe5b90600052602060002001908054600181600116156101000203166002900461239d929190612748565b508080600101915050612340565b50600190505b8080600101915050612253565b508091505092915050565b600080600090505b60038054905081101561253f576123fe600382815481106123ee57fe5b906000526020600020018461254a565b15612532576002836040516124139190612e82565b90815260200160405180910390206000808201600061243291906127cf565b60018201600061244291906127cf565b60028201600061245291906127cf565b6003820160006101000a81549060ff02191690556003820160016101000a81549060ff02191690556003820160026101000a81549073ffffffffffffffffffffffffffffffffffffffff02191690556004820160006124b19190612838565b505060006001820190505b60038054905081101561252757600381815481106124d657fe5b90600052602060002001600360018303815481106124f057fe5b906000526020600020019080546001816001161561010002031660029004612519929190612748565b5080806001019150506124bc565b506001915050612545565b80806001019150506123d1565b50600090505b919050565b60008083905060608390508051828054600181600116156101000203166002900490501461257d576000925050506126c2565b60008090505b828054600181600116156101000203166002900490508110156126ba578181815181106125ac57fe5b60200101517f010000000000000000000000000000000000000000000000000000000000000090047f0100000000000000000000000000000000000000000000000000000000000000027effffffffffffffffffffffffffffffffffffffffffffffffffffffffffffff1916838281546001816001161561010002031660029004811061263557fe5b8154600116156126545790600052602060002090602091828204019190065b9054901a7f0100000000000000000000000000000000000000000000000000000000000000027effffffffffffffffffffffffffffffffffffffffffffffffffffffffffffff1916146126ad57600093505050506126c2565b8080600101915050612583565b506001925050505b92915050565b828054600181600116156101000203166002900490600052602060002090601f016020900481019282601f1061270957805160ff1916838001178555612737565b82800160010185558215612737579182015b8281111561273657825182559160200191906001019061271b565b5b5090506127449190612859565b5090565b828054600181600116156101000203166002900490600052602060002090601f016020900481019282601f1061278157805485556127be565b828001600101855582156127be57600052602060002091601f016020900482015b828111156127bd5782548255916001019190600101906127a2565b5b5090506127cb9190612859565b5090565b50805460018160011615610100020316600290046000825580601f106127f55750612814565b601f0160209004906000526020600020908101906128139190612859565b5b50565b5080546000825590600052602060002090810190612835919061287e565b50565b50805460008255906000526020600020908101906128569190612859565b50565b61287b91905b8082111561287757600081600090555060010161285f565b5090565b90565b6128a791905b808211156128a3576000818161289a91906127cf565b50600101612884565b5090565b90565b6000813590506128b9816131d5565b92915050565b600082601f8301126128d057600080fd5b81356128e36128de8261304d565b613020565b915080825260208301602083018583830111156128ff57600080fd5b61290a838284613182565b50505092915050565b60006020828403121561292557600080fd5b6000612933848285016128aa565b91505092915050565b60006020828403121561294e57600080fd5b600082013567ffffffffffffffff81111561296857600080fd5b612974848285016128bf565b91505092915050565b60008060006060848603121561299257600080fd5b600084013567ffffffffffffffff8111156129ac57600080fd5b6129b8868287016128bf565b93505060206129c9868287016128aa565b925050604084013567ffffffffffffffff8111156129e657600080fd5b6129f2868287016128bf565b9150509250925092565b60008060408385031215612a0f57600080fd5b600083013567ffffffffffffffff811115612a2957600080fd5b612a35858286016128bf565b925050602083013567ffffffffffffffff811115612a5257600080fd5b612a5e858286016128bf565b9150509250929050565b600080600060608486031215612a7d57600080fd5b600084013567ffffffffffffffff811115612a9757600080fd5b612aa3868287016128bf565b935050602084013567ffffffffffffffff811115612ac057600080fd5b612acc868287016128bf565b925050604084013567ffffffffffffffff811115612ae957600080fd5b612af5868287016128bf565b9150509250925092565b6000612b0b8383612b2b565b60208301905092915050565b6000612b238383612c86565b905092915050565b612b3481613143565b82525050565b612b4381613143565b82525050565b6000612b54826130ae565b612b5e81856130f4565b9350612b6983613079565b8060005b83811015612b9a578151612b818882612aff565b9750612b8c836130da565b925050600181019050612b6d565b5085935050505092915050565b6000612bb2826130b9565b612bbc8185613105565b935083602082028501612bce85613089565b8060005b85811015612c0a5784840389528151612beb8582612b17565b9450612bf6836130e7565b925060208a01995050600181019050612bd2565b50829750879550505050505092915050565b6000612c27826130cf565b612c318185613127565b9350612c41818560208601613191565b612c4a816131c4565b840191505092915050565b6000612c60826130cf565b612c6a8185613138565b9350612c7a818560208601613191565b80840191505092915050565b6000612c91826130c4565b612c9b8185613116565b9350612cab818560208601613191565b612cb4816131c4565b840191505092915050565b600081546001811660008114612cdc5760018114612d0157612d45565b607f6002830416612ced8187613138565b955060ff1983168652808601935050612d45565b60028204612d0f8187613138565b9550612d1a85613099565b60005b82811015612d3c57815481890152600182019150602081019050612d1d565b82880195505050505b505092915050565b6000612d5a601983613127565b91507f596f7520617265206e6f7420616e2041646d696e2075736572000000000000006000830152602082019050919050565b6000612d9a601383613127565b91507f42616e6b20616c726561647920657869737473000000000000000000000000006000830152602082019050919050565b6000612dda603e83613127565b91507f54686973207573657220616c7265616479206861732061204b5943207265717560008301527f65737420776974682073616d65206461746120696e2070726f636573732e00006020830152604082019050919050565b6000612e40602083613127565b91507f5468697320637573746f6d657220697320616c72656164792070726573656e746000830152602082019050919050565b612e7c81613175565b82525050565b6000612e8e8284612c55565b915081905092915050565b6000612ea58284612cbf565b915081905092915050565b6000602082019050612ec56000830184612b3a565b92915050565b600060c082019050612ee06000830189612b3a565b8181036020830152612ef28188612c1c565b9050612f016040830187612e73565b612f0e6060830186612e73565b8181036080830152612f208185612c1c565b905081810360a0830152612f348184612b49565b9050979650505050505050565b60006020820190508181036000830152612f5b8184612ba7565b905092915050565b60006020820190508181036000830152612f7d8184612c1c565b905092915050565b60006020820190508181036000830152612f9e81612d4d565b9050919050565b60006020820190508181036000830152612fbe81612d8d565b9050919050565b60006020820190508181036000830152612fde81612dcd565b9050919050565b60006020820190508181036000830152612ffe81612e33565b9050919050565b600060208201905061301a6000830184612e73565b92915050565b6000604051905081810181811067ffffffffffffffff8211171561304357600080fd5b8060405250919050565b600067ffffffffffffffff82111561306457600080fd5b601f19601f8301169050602081019050919050565b6000819050602082019050919050565b6000819050602082019050919050565b60008190508160005260206000209050919050565b600081519050919050565b600081519050919050565b600081519050919050565b600081519050919050565b6000602082019050919050565b6000602082019050919050565b600082825260208201905092915050565b600082825260208201905092915050565b600082825260208201905092915050565b600082825260208201905092915050565b600081905092915050565b600061314e82613155565b9050919050565b600073ffffffffffffffffffffffffffffffffffffffff82169050919050565b600060ff82169050919050565b82818337600083830152505050565b60005b838110156131af578082015181840152602081019050613194565b838111156131be576000848401525b50505050565b6000601f19601f8301169050919050565b6131de81613143565b81146131e957600080fd5b5056fea264697066735822122086067b2ea875fccbc2b7a18075fc27ca85abe8eb21b79e0895a137297256ffd864736f6c63430006010033",
  "source": "pragma solidity ^0.6.1;\npragma experimental ABIEncoderV2;\n\ncontract KYCContract {\n\n    address admin;\n\n    uint256 threshold = 500 finney;\n\n    /*\n    Struct for a customer\n     */\n    struct Customer {\n        string userName;   //unique\n        string password;\n        string data_hash;  //unique\n        uint8 rating;\n        uint8 upvotes;\n        address bank;\n        address[] votedBankAddress;\n    }\n\n    /*\n    Struct for a Bank\n     */\n    struct Bank {\n        address ethAddress;   //unique\n        string bankName;\n        uint8 kycCount;\n        uint8 bankRating;\n        string regNumber;       //unique\n        string[] kycRequestList;\n        address[] bankVotedAddress;\n    }\n\n    /*\n    Struct for a KYC Request\n     */\n    struct KYCRequest {\n        string userName;\n        string data_hash;  //unique\n        address bank;\n        bool isAllowed;\n    }\n\n    /*\n    Mapping a customer's username to the Customer struct\n    We also keep an array of all keys of the mapping to be able to loop through them when required.\n     */\n    mapping(string => Customer) customers;\n    string[] customerNames;\n\n    /*\n    Mapping a bank's address to the Bank Struct\n    We also keep an array of all keys of the mapping to be able to loop through them when required.\n     */\n    mapping(address => Bank) banks;\n    address[] bankAddresses;\n\n    /*\n    Mapping a customer's Data Hash to KYC request captured for that customer.\n    This mapping is used to keep track of every kycRequest initiated for every customer by a bank.\n     */\n    mapping(string => KYCRequest) kycRequests;\n    string[] customerDataList;\n\n    string[] list;\n\n    /*\n    Mapping a customer's user name with a bank's address\n    This mapping is used to keep track of every upvote given by a bank to a customer.\n     */\n    mapping(string => mapping(address => uint256)) upvotes;\n\n    /*\n    Mapping a bank name with another bank's name\n    This mapping is used to keep track of every upvote given by a bank to another bank.\n     */\n    mapping(string => mapping(string => uint256)) bankRating;\n\n    /**\n     * Constructor of the contract.\n     * We save the contract's admin as the account which deployed this contract.\n     */\n    constructor() public {\n        admin = msg.sender;\n    }\n\n    /**\n     * Modifier for Admin interface\n     * We use some functions which can be only used from admin interface.\n     */\n    modifier onlyOwner{\n       require(msg.sender == admin,\"You are not an Admin user\");\n       _;\n    }\n\n    /*\n    *   //////////////\n    *   Bank Interface\n    *   //////////////\n    */\n\n    /**\n     * Record a new KYC request on behalf of a customer\n     * The sender of message call is the bank itself\n     * @param {string} _userName The name of the customer for whom KYC is to be done\n     * @param {string} _customerData Hash of the customer's ID submitted for KYC\n     * @return {uint8}  0 indicates failure, 1 indicates success\n     */\n    function addKycRequest(string memory _userName, string memory _customerData) public returns (uint8) {\n        // Check that the user's KYC has not been done before, the Bank is a valid bank and it is allowed to perform KYC.\n        require(kycRequests[_customerData].bank == address(0), \"This user already has a KYC request with same data in process.\");\n\n        uint8 x = banks[msg.sender].bankRating;\n        if ( x > threshold ) {\n            kycRequests[_customerData].isAllowed = true;\n\n            for (uint i = 0; i < bankAddresses.length; i++) {\n            if(bankAddresses[i] == msg.sender && kycRequests[_customerData].isAllowed) {\n                kycRequests[_customerData].data_hash = _customerData;\n                kycRequests[_customerData].userName = _userName;\n                kycRequests[_customerData].bank = msg.sender;\n                banks[msg.sender].kycRequestList.push(_customerData);\n                customerDataList.push(_customerData);\n                return 1;\n           }\n        }\n        }else{\n            return 0;\n        }\n    }\n\n    /**\n     * Remove KYC request\n     * @param {string} _userName Name of the customer\n     * @param {string} _customerData Hash of the customer's ID submitted for KYC\n     * @return {uint8}  0 indicates failure, 1 indicates success\n     */\n    function removeKYCRequest(string memory _userName, string memory _customerData) public returns (uint8) {\n        uint8 i = 0;\n        for (uint256 y = 0; y < customerDataList.length; y++) {\n            if (stringsEquals(kycRequests[customerDataList[y]].userName,_userName)) {\n                delete kycRequests[customerDataList[y]];\n                for(uint j = y+1;j < customerDataList.length;j++)\n                {\n                    customerDataList[j-1] = customerDataList[j];\n                }\n                y = 1;\n            }\n        }\n        return i; // 0 is returned if no request with the input username is found.\n    }\n\n    /**\n     * Add a new customer\n     * @param {string} _userName Name of the customer to be added\n     * @param {string} _customerData Hash of the customer's ID submitted for KYC\n     * @return {uint8} 0 indicates failure, 1 indicates success\n     */\n    function addCustomer(string memory _userName, string memory _customerData) public returns (uint8) {\n        require(customers[_userName].bank == address(0), \"This customer is already present\");\n\n        if (kycRequests[_customerData].isAllowed) {\n            customers[_userName].userName = _userName;\n            customers[_userName].data_hash = _customerData;\n            customers[_userName].bank = msg.sender;\n            customers[_userName].upvotes = 0;\n            customers[_userName].rating = 0;\n            customerNames.push(_userName);\n            return 1;\n        }else{\n            return 0;\n        }\n    }\n\n    /**\n     * Remove customer information\n     * @param  {string} _userName Name of the customer\n     * @return {uint8} 0 indicates failure, 1 indicates success\n     */\n    function removeCustomer(string memory _userName) public returns (uint8) {\n            for(uint i = 0;i < customerNames.length;i++)\n            {\n                if(stringsEquals(customerNames[i],_userName))\n                {\n                    delete customers[_userName];\n                    for(uint j = i+1;j < customerNames.length;j++)\n                    {\n                        customerNames[j-1] = customerNames[j];\n                    }\n                    return 1;\n                }\n            }\n            return 0;\n    }\n\n    /**\n     * Edit customer information\n     * @param  {public} _userName Name of the customer\n     * @param  {public} _password password of the customer\n     * @param  {public} _newcustomerData New hash of the updated ID provided by the customer\n     * @return {uint8}   0 indicates failure, 1 indicates success\n     */\n    function modifyCustomer(string memory _userName, string memory _password, string memory _newcustomerData) public returns (uint8) {\n        if(stringsEquals(customers[_userName].password, _password)) {\n            for (uint j = 0; j < customerDataList.length; j++) {\n            if(stringsEquals(customerDataList[j], customers[_userName].data_hash)) {\n                for(uint i = 0;i < customerNames.length;i++){\n                        if(stringsEquals(customerNames[i],_userName)) {\n                            customers[_userName].data_hash = _newcustomerData;\n                            delete customerDataList[j];\n                            for(uint z = i+1;j < customerDataList.length;z++)\n                                {\n                                    customerDataList[z-1] = customerDataList[z];\n                                }\n                            customers[_userName].upvotes = 0;\n                            customers[_userName].rating = 0;\n                            customers[_userName].bank = msg.sender;\n                            return 1;\n                        }\n                    }\n            }\n        }\n        }else{\n            return 0;\n        }\n    }\n\n    /**\n     * View customer information\n     * @param  {public} _userName Name of the customer\n     * @param  {public} _password password of the customer\n     * @return {string} hash of the customer data in form of a string.\n     */\n    function viewCustomer(string memory _userName, string memory _password) public view returns (string memory) {\n        if(stringsEquals(customers[_userName].password, _password)) {\n            return customers[_userName].data_hash;\n        }\n    }\n\n    /**\n     * Fetches the KYC requests for a specific bank.\n     * @param {address} _ethAddress The ethAddress of the bank\n     * @return {array} list of all the requests initiated by the bank which are yet to be validated.\n     */\n    function getBankRequests(address _ethAddress) public returns (string[] memory) {\n        for(uint8 i = 0; i < banks[_ethAddress].kycRequestList.length; i++) {\n            list[i]=banks[_ethAddress].kycRequestList[i];\n        }\n        return list;\n    }\n\n    /**\n     * Fetch customer rating from the smart contract\n     * @param  {public} _userName Name of the customer\n     * @return {uint8} rating\n     */\n    function getCustomerRating(string memory _userName) public returns (uint8) {\n        return customers[_userName].rating;\n    }\n\n    /**\n     * Fetch bank rating from the smart contract\n     * @param {address} _ethAddress The ethAddress of the bank\n     * @return {uint8} rating\n     */\n    function getBankRating(address _ethAddress) public returns (uint8) {\n        return banks[_ethAddress].bankRating;\n    }\n\n    /**\n     * Fetch the bank details\n     * @param {address} _ethAddress The ethAddress of the bank\n     * @return {Bank}  The Bank struct as an object\n     */\n    function getBankDetails(address _ethAddress) public returns(address, string memory, uint8, uint8, string memory, address[] memory) {\n        return (banks[_ethAddress].ethAddress,banks[_ethAddress].bankName,banks[_ethAddress].kycCount,banks[_ethAddress].bankRating,banks[_ethAddress].regNumber,banks[_ethAddress].bankVotedAddress);\n    }\n\n    /**\n     * Fetch the bank details which made the last changes to the customer data.\n     * @param  {public} _userName Name of the customer\n     * @return {address} _ethAddress The ethAddress of the bank\n     */\n    function retrieveHistory(string memory _userName) public returns(address){\n        return customers[_userName].bank;\n    }\n\n    /**\n     * Add a new upvote from a bank\n     * @param {public} _userName Name of the customer to be upvoted\n     * @return {uint8}   0 indicates failure, 1 indicates success\n     */\n    function customerUpvote(string memory _userName) public returns (uint8) {\n\n        for(uint j = 0; j < customers[_userName].votedBankAddress.length;j++){\n            if(customers[_userName].votedBankAddress[j] == msg.sender) {\n                return 0;\n            }\n        }\n\n        if (customers[_userName].rating > threshold) {\n            uint256 index = 0;\n            delete banks[msg.sender].kycRequestList[index];\n            uint8 i = 0;\n            for (uint j = i+1;j < banks[msg.sender].kycRequestList.length;j++)\n                {\n                    banks[msg.sender].kycRequestList[j-1] = banks[msg.sender].kycRequestList[j];\n                }\n        }\n\n        for(uint i = 0;i < customerNames.length;i++)\n            {\n                if(stringsEquals(customerNames[i],_userName))\n                {\n                    customers[_userName].upvotes + 100 finney;\n                    customers[_userName].rating + 100 finney;\n                    customers[_userName].votedBankAddress.push(msg.sender);\n                    return 1;\n                }\n            }\n    }\n\n    /**\n     * Add a new upvote from a bank\n     * @param {address} _ethAddress The ethAddress of the bank\n     * @return {uint8}   0 indicates failure, 1 indicates success\n     */\n    function bankUpvote(address _ethAddress) public returns (uint8) {\n\n        for(uint j = 0; j < banks[_ethAddress].bankVotedAddress.length; j++){\n            if(banks[_ethAddress].bankVotedAddress[j] == _ethAddress) {\n                return 0;\n            }\n        }\n\n        for(uint i = 0;i < bankAddresses.length;i++)\n            {\n                if(bankAddresses[i] == _ethAddress)\n                {\n                    banks[_ethAddress].bankRating + 100 finney;\n                    banks[_ethAddress].bankVotedAddress.push(_ethAddress);\n                    return 1;\n                }\n            }\n        return 0;\n    }\n\n    /**\n     * Set a password for customer data\n     * @param  {public} _userName Name of the customer\n     * @param  {public} _password password of the customer\n     * @return {uint8}   0 indicates failure, 1 indicates success\n     */\n    function setPassword(string memory _userName, string memory _password) public returns (uint8) {\n\n        customers[_userName].password = _password;\n        return 1;\n\n    }\n\n// if you are using string, you can use the following function to compare two strings\n// function to compare two string value\n// This is an internal fucntion to compare string values\n// @Params - String a and String b are passed as Parameters\n// @return - This function returns true if strings are matched and false if the strings are not matching\n    function stringsEquals(string storage _a, string memory _b) internal view returns (bool) {\n        bytes storage a = bytes(_a);\n        bytes memory b = bytes(_b);\n        if (a.length != b.length)\n            return false;\n        // @todo unroll this loop\n        for (uint i = 0; i < a.length; i ++)\n        {\n            if (a[i] != b[i])\n                return false;\n        }\n        return true;\n    }\n\n    /*\n    *   ////////////////\n    *   Admin Interface\n    *   ///////////////\n    */\n\n    /**\n     * Add a new bank\n     * @param {string} _bankName Name of the bank to be added\n     * @param {address} _ethAddress The ethAddress of the bank\n     * @param {string} _regNumber The regNumber of the bank\n     * @return {uint8}   0 indicates failure, 1 indicates success\n     */\n    function addBank(string memory _bankName, address _ethAddress, string memory _regNumber) public onlyOwner returns (uint8) {\n         for (uint i = 0; i < bankAddresses.length; i++) {\n           if(bankAddresses[i] == _ethAddress) {\n               revert(\"Bank already exists\");\n           }\n        }\n        banks[_ethAddress].bankName = _bankName;\n        banks[_ethAddress].ethAddress = _ethAddress;\n        banks[_ethAddress].regNumber = _regNumber;\n        banks[_ethAddress].kycCount = 0;\n        banks[_ethAddress].bankRating = 0;\n        bankAddresses.push(_ethAddress);\n        return 1;\n    }\n\n    /**\n     * Remove a bank\n     * @param {address} _ethAddress The ethAddress of the bank\n     * @return {uint8}   0 indicates failure, 1 indicates success\n     */\n    function removeBank(address _ethAddress) public onlyOwner returns (uint8) {\n            for(uint i = 0;i < bankAddresses.length;i++)\n            {\n                if(bankAddresses[i] == _ethAddress)\n                {\n                    delete banks[_ethAddress];\n                    for(uint j = i+1;j < bankAddresses.length;j++)\n                    {\n                        bankAddresses[j-1] = bankAddresses[j];\n                    }\n                    return 1;\n                }\n            }\n            return 0;\n    }\n\n}\n\n",
  "sourcePath": "/home/arjun/Desktop/Assignment/Phase-3/KYC-SC/contracts/KYCContract.sol",
  "compiler": {
    "name": "solc",
    "version": "0.6.1+commit.e6f7d5a4.Emscripten.clang"
  },
  "schemaVersion": "3.0.23",
  "updatedAt": "2020-02-08T13:53:11.676Z",
  "networkType": "ethereum",
  "devdoc": {
    "methods": {
      "addBank(string,address,string)": {
        "params": {
          "": "{string} _regNumber The regNumber of the bank"
        },
        "returns": {
          "_0": "{uint8}   0 indicates failure, 1 indicates success"
        }
      },
      "addCustomer(string,string)": {
        "params": {
          "": "{string} _customerData Hash of the customer's ID submitted for KYC"
        },
        "returns": {
          "_0": "{uint8} 0 indicates failure, 1 indicates success"
        }
      },
      "addKycRequest(string,string)": {
        "params": {
          "": "{string} _customerData Hash of the customer's ID submitted for KYC"
        },
        "returns": {
          "_0": "{uint8}  0 indicates failure, 1 indicates success"
        }
      },
      "bankUpvote(address)": {
        "params": {
          "": "{address} _ethAddress The ethAddress of the bank"
        },
        "returns": {
          "_0": "{uint8}   0 indicates failure, 1 indicates success"
        }
      },
      "customerUpvote(string)": {
        "params": {
          "": "{public} _userName Name of the customer to be upvoted"
        },
        "returns": {
          "_0": "{uint8}   0 indicates failure, 1 indicates success"
        }
      },
      "getBankDetails(address)": {
        "params": {
          "": "{address} _ethAddress The ethAddress of the bank"
        },
        "returns": {
          "_0": "{Bank}  The Bank struct as an object"
        }
      },
      "getBankRating(address)": {
        "params": {
          "": "{address} _ethAddress The ethAddress of the bank"
        },
        "returns": {
          "_0": "{uint8} rating"
        }
      },
      "getBankRequests(address)": {
        "params": {
          "": "{address} _ethAddress The ethAddress of the bank"
        },
        "returns": {
          "_0": "{array} list of all the requests initiated by the bank which are yet to be validated."
        }
      },
      "getCustomerRating(string)": {
        "params": {
          "": "{public} _userName Name of the customer"
        },
        "returns": {
          "_0": "{uint8} rating"
        }
      },
      "modifyCustomer(string,string,string)": {
        "params": {
          "": "{public} _newcustomerData New hash of the updated ID provided by the customer"
        },
        "returns": {
          "_0": "{uint8}   0 indicates failure, 1 indicates success"
        }
      },
      "removeBank(address)": {
        "params": {
          "": "{address} _ethAddress The ethAddress of the bank"
        },
        "returns": {
          "_0": "{uint8}   0 indicates failure, 1 indicates success"
        }
      },
      "removeCustomer(string)": {
        "params": {
          "": "{string} _userName Name of the customer"
        },
        "returns": {
          "_0": "{uint8} 0 indicates failure, 1 indicates success"
        }
      },
      "removeKYCRequest(string,string)": {
        "params": {
          "": "{string} _customerData Hash of the customer's ID submitted for KYC"
        },
        "returns": {
          "_0": "{uint8}  0 indicates failure, 1 indicates success"
        }
      },
      "retrieveHistory(string)": {
        "params": {
          "": "{public} _userName Name of the customer"
        },
        "returns": {
          "_0": "{address} _ethAddress The ethAddress of the bank"
        }
      },
      "setPassword(string,string)": {
        "params": {
          "": "{public} _password password of the customer"
        },
        "returns": {
          "_0": "{uint8}   0 indicates failure, 1 indicates success"
        }
      },
      "viewCustomer(string,string)": {
        "params": {
          "": "{public} _password password of the customer"
        },
        "returns": {
          "_0": "{string} hash of the customer data in form of a string."
        }
      }
    }
  },
  "userdoc": {
    "methods": {
      "addBank(string,address,string)": {
        "notice": "Add a new bank"
      },
      "addCustomer(string,string)": {
        "notice": "Add a new customer"
      },
      "addKycRequest(string,string)": {
        "notice": "Record a new KYC request on behalf of a customer The sender of message call is the bank itself"
      },
      "bankUpvote(address)": {
        "notice": "Add a new upvote from a bank"
      },
      "constructor": "Constructor of the contract. We save the contract's admin as the account which deployed this contract.",
      "customerUpvote(string)": {
        "notice": "Add a new upvote from a bank"
      },
      "getBankDetails(address)": {
        "notice": "Fetch the bank details"
      },
      "getBankRating(address)": {
        "notice": "Fetch bank rating from the smart contract"
      },
      "getBankRequests(address)": {
        "notice": "Fetches the KYC requests for a specific bank."
      },
      "getCustomerRating(string)": {
        "notice": "Fetch customer rating from the smart contract"
      },
      "modifyCustomer(string,string,string)": {
        "notice": "Edit customer information"
      },
      "removeBank(address)": {
        "notice": "Remove a bank"
      },
      "removeCustomer(string)": {
        "notice": "Remove customer information"
      },
      "removeKYCRequest(string,string)": {
        "notice": "Remove KYC request"
      },
      "retrieveHistory(string)": {
        "notice": "Fetch the bank details which made the last changes to the customer data."
      },
      "setPassword(string,string)": {
        "notice": "Set a password for customer data"
      },
      "viewCustomer(string,string)": {
        "notice": "View customer information"
      }
    }
  }
}